:10000000FE2F00308A000408840A8207003404347A
:10001000B8340B34013401340234E834033402348C
:1000200003340134B8340B34003401340034E83480
:100030000334013401349F340034853400340534F2
:1000400000341F340034193400348F3400349F34AA
:1000500000348F340034853400341F3400341934B4
:1000600000340534003400340034003400340134EA
:1000700001340034013400340034023400340034DC
:1000800000340134033400340134003400340434C7
:1000900000340034003401340534003400340034BA
:0200A000013429
:100D66002D300800F3007308F000193084000120CC
:100D7600F1000120F200710884008317721C8313AE
:100D8600700880000800F300F201731CCB2ECC2EF5
:100D9600D02E7008F1007108F2070310F00D031051
:100DA600F30C7308031DD82ED92EC82E720808001E
:100DB600EB2E0330F7009730F600F60BE02EF70B1C
:100DC600E02EE52E0130F4020030031CF503F50297
:100DD60074087504031DF02EF12EDC2E0800B326D0
:100DE6008312A0002008A30023082B278312A40146
:100DF6000530A0002008F0002408C626013E840025
:100E06000120B52605308312A0002008F000240832
:100E1600C626023E84000120F4000120F500DB26F0
:100E260003108312851D0314003003180130A0003F
:100E36000530A1002108F0002408C626043E8312CE
:100E4600200784000120A2002208A400FB2E00280F
:100E5600FA00703083168F000730831299009F01C5
:100E6600FB017B08F4007407193E84000120F5009D
:100E76000120F600750884008317761C8313800111
:100E8600FC010530F4007408F0007C08C6267A07D9
:100E9600023E84000120F5007C0A532F0310F50D55
:100EA600FF3E031D512F7508F6007B08F7007707F4
:100EB600173E84000120F8000120F900780884001C
:100EC6008317791C8313760880000530F4007408B4
:100ED600F0007C08C6267A07043E84000120F5004F
:100EE6007C0A772F0310F50DFF3E031D752F75083D
:100EF600F6007B08F7007707193E84000120F8000A
:100F06000120F900780884008317791C831376087A
:100F160080000530F4007408F0007C08C6267A07C5
:100F2600013E84000120013A031D9A2F9B2FCF2FEB
:100F36000530F4007408F0007C08C6267A07023EE5
:100F460084000120013A031DA92FAA2FCF2F0530B7
:100F5600F4007408F0007C08C6267A07023E840076
:100F66000120F5007C0AB92F0310F50DFF3E031D85
:100F7600B72F7508F6007B08F7007707153E840043
:100F86000120F8000120F900780884008317791CF5
:100F9600831376088000EA2F0030F4007C0AD52FF0
:100FA6000310F40DFF3E031DD32F7408F5007B08D4
:100FB600F6007607153E84000120F7000120F800B0
:100FC600770884008317781C831375088004013022
:100FD600F4007408FC0706307C02031CF32FF42F80
:100FE600442F0130F4007408FB077B080319FC2F1B
:0A0FF600FD2F342F08008301F22EB6
:02400E00D530AB
:00000001FF
